{
  "_format": "hh-sol-artifact-1",
  "contractName": "TipJar",
  "sourceName": "src/contracts/TipJar.sol",
  "abi": [
    {
      "inputs": [],
      "stateMutability": "nonpayable",
      "type": "constructor"
    },
    {
      "inputs": [],
      "name": "getTotalTips",
      "outputs": [
        {
          "internalType": "uint256",
          "name": "",
          "type": "uint256"
        }
      ],
      "stateMutability": "view",
      "type": "function"
    },
    {
      "inputs": [
        {
          "internalType": "string",
          "name": "_message",
          "type": "string"
        },
        {
          "internalType": "string",
          "name": "_name",
          "type": "string"
        }
      ],
      "name": "sendTip",
      "outputs": [],
      "stateMutability": "payable",
      "type": "function"
    }
  ],
  "bytecode": "0x608060405234801561001057600080fd5b5033600160006101000a81548173ffffffffffffffffffffffffffffffffffffffff021916908373ffffffffffffffffffffffffffffffffffffffff1602179055506106c9806100616000396000f3fe6080604052600436106100295760003560e01c806354cafb041461002e57806355f203b51461004a575b600080fd5b61004860048036038101906100439190610374565b610075565b005b34801561005657600080fd5b5061005f610260565b60405161006c919061046a565b60405180910390f35b6000600160009054906101000a900473ffffffffffffffffffffffffffffffffffffffff1673ffffffffffffffffffffffffffffffffffffffff16346040516100bd90610435565b60006040518083038185875af1925050503d80600081146100fa576040519150601f19603f3d011682016040523d82523d6000602084013e6100ff565b606091505b5050905080610143576040517f08c379a000000000000000000000000000000000000000000000000000000000815260040161013a9061044a565b60405180910390fd5b600160008082825461015591906104f7565b9250508190555060026040518060a001604052803373ffffffffffffffffffffffffffffffffffffffff16815260200185815260200184815260200142815260200134815250908060018154018082558091505060019003906000526020600020906005020160009091909190915060008201518160000160006101000a81548173ffffffffffffffffffffffffffffffffffffffff021916908373ffffffffffffffffffffffffffffffffffffffff1602179055506020820151816001019080519060200190610227929190610269565b506040820151816002019080519060200190610244929190610269565b5060608201518160030155608082015181600401555050505050565b60008054905090565b82805461027590610566565b90600052602060002090601f01602090048101928261029757600085556102de565b82601f106102b057805160ff19168380011785556102de565b828001600101855582156102de579182015b828111156102dd5782518255916020019190600101906102c2565b5b5090506102eb91906102ef565b5090565b5b808211156103085760008160009055506001016102f0565b5090565b600061031f61031a846104aa565b610485565b90508281526020810184848401111561033757600080fd5b610342848285610557565b509392505050565b600082601f83011261035b57600080fd5b813561036b84826020860161030c565b91505092915050565b6000806040838503121561038757600080fd5b600083013567ffffffffffffffff8111156103a157600080fd5b6103ad8582860161034a565b925050602083013567ffffffffffffffff8111156103ca57600080fd5b6103d68582860161034a565b9150509250929050565b60006103ed6018836104e6565b91506103f882610667565b602082019050919050565b60006104106000836104db565b915061041b82610690565b600082019050919050565b61042f8161054d565b82525050565b600061044082610403565b9150819050919050565b60006020820190508181036000830152610463816103e0565b9050919050565b600060208201905061047f6000830184610426565b92915050565b600061048f6104a0565b905061049b8282610598565b919050565b6000604051905090565b600067ffffffffffffffff8211156104c5576104c4610627565b5b6104ce82610656565b9050602081019050919050565b600081905092915050565b600082825260208201905092915050565b60006105028261054d565b915061050d8361054d565b9250827fffffffffffffffffffffffffffffffffffffffffffffffffffffffffffffffff03821115610542576105416105c9565b5b828201905092915050565b6000819050919050565b82818337600083830152505050565b6000600282049050600182168061057e57607f821691505b60208210811415610592576105916105f8565b5b50919050565b6105a182610656565b810181811067ffffffffffffffff821117156105c0576105bf610627565b5b80604052505050565b7f4e487b7100000000000000000000000000000000000000000000000000000000600052601160045260246000fd5b7f4e487b7100000000000000000000000000000000000000000000000000000000600052602260045260246000fd5b7f4e487b7100000000000000000000000000000000000000000000000000000000600052604160045260246000fd5b6000601f19601f8301169050919050565b7f4661696c656420746f2073656e6420746865206d6f6e65790000000000000000600082015250565b5056fea264697066735822122089c47cd5c94f68b220f38ae6a37375cbace00c62a29022a8d05bf98a9694898e64736f6c63430008040033",
  "linkReferences": {},
  "deployedLinkReferences": {}
}