{
  "_format": "hh-sol-artifact-1",
  "contractName": "TipJar",
  "sourceName": "src/contracts/TipJar.sol",
  "abi": [
    {
      "inputs": [],
      "stateMutability": "nonpayable",
      "type": "constructor"
    },
    {
      "inputs": [],
      "name": "getAllTips",
      "outputs": [
        {
          "components": [
            {
              "internalType": "address",
              "name": "sender",
              "type": "address"
            },
            {
              "internalType": "string",
              "name": "message",
              "type": "string"
            },
            {
              "internalType": "string",
              "name": "name",
              "type": "string"
            },
            {
              "internalType": "uint256",
              "name": "timestamp",
              "type": "uint256"
            },
            {
              "internalType": "uint256",
              "name": "amount",
              "type": "uint256"
            }
          ],
          "internalType": "struct TipJar.Tip[]",
          "name": "",
          "type": "tuple[]"
        }
      ],
      "stateMutability": "view",
      "type": "function"
    },
    {
      "inputs": [],
      "name": "getTotalTips",
      "outputs": [
        {
          "internalType": "uint256",
          "name": "",
          "type": "uint256"
        }
      ],
      "stateMutability": "view",
      "type": "function"
    },
    {
      "inputs": [
        {
          "internalType": "string",
          "name": "_message",
          "type": "string"
        },
        {
          "internalType": "string",
          "name": "_name",
          "type": "string"
        }
      ],
      "name": "sendTip",
      "outputs": [],
      "stateMutability": "payable",
      "type": "function"
    },
    {
      "inputs": [],
      "name": "totalTips",
      "outputs": [
        {
          "internalType": "uint256",
          "name": "",
          "type": "uint256"
        }
      ],
      "stateMutability": "view",
      "type": "function"
    }
  ],
  "bytecode": "0x608060405234801561001057600080fd5b5033600160006101000a81548173ffffffffffffffffffffffffffffffffffffffff021916908373ffffffffffffffffffffffffffffffffffffffff160217905550610c27806100616000396000f3fe60806040526004361061003f5760003560e01c8063399ddbbd1461004457806354cafb041461006f57806355f203b51461008b578063990de8ae146100b6575b600080fd5b34801561005057600080fd5b506100596100e1565b6040516100669190610883565b60405180910390f35b6100896004803603810190610084919061062d565b6102ce565b005b34801561009757600080fd5b506100a0610513565b6040516100ad91906108e5565b60405180910390f35b3480156100c257600080fd5b506100cb61051c565b6040516100d891906108e5565b60405180910390f35b60606002805480602002602001604051908101604052809291908181526020016000905b828210156102c557838290600052602060002090600502016040518060a00160405290816000820160009054906101000a900473ffffffffffffffffffffffffffffffffffffffff1673ffffffffffffffffffffffffffffffffffffffff1673ffffffffffffffffffffffffffffffffffffffff16815260200160018201805461018e90610a9b565b80601f01602080910402602001604051908101604052809291908181526020018280546101ba90610a9b565b80156102075780601f106101dc57610100808354040283529160200191610207565b820191906000526020600020905b8154815290600101906020018083116101ea57829003601f168201915b5050505050815260200160028201805461022090610a9b565b80601f016020809104026020016040519081016040528092919081815260200182805461024c90610a9b565b80156102995780601f1061026e57610100808354040283529160200191610299565b820191906000526020600020905b81548152906001019060200180831161027c57829003601f168201915b505050505081526020016003820154815260200160048201548152505081526020019060010190610105565b50505050905090565b343373ffffffffffffffffffffffffffffffffffffffff16311015610328576040517f08c379a000000000000000000000000000000000000000000000000000000000815260040161031f906108c5565b60405180910390fd5b6000600160009054906101000a900473ffffffffffffffffffffffffffffffffffffffff1673ffffffffffffffffffffffffffffffffffffffff16346040516103709061086e565b60006040518083038185875af1925050503d80600081146103ad576040519150601f19603f3d011682016040523d82523d6000602084013e6103b2565b606091505b50509050806103f6576040517f08c379a00000000000000000000000000000000000000000000000000000000081526004016103ed906108a5565b60405180910390fd5b600160008082825461040891906109c7565b9250508190555060026040518060a001604052803373ffffffffffffffffffffffffffffffffffffffff16815260200185815260200184815260200142815260200134815250908060018154018082558091505060019003906000526020600020906005020160009091909190915060008201518160000160006101000a81548173ffffffffffffffffffffffffffffffffffffffff021916908373ffffffffffffffffffffffffffffffffffffffff16021790555060208201518160010190805190602001906104da929190610522565b5060408201518160020190805190602001906104f7929190610522565b5060608201518160030155608082015181600401555050505050565b60008054905090565b60005481565b82805461052e90610a9b565b90600052602060002090601f0160209004810192826105505760008555610597565b82601f1061056957805160ff1916838001178555610597565b82800160010185558215610597579182015b8281111561059657825182559160200191906001019061057b565b5b5090506105a491906105a8565b5090565b5b808211156105c15760008160009055506001016105a9565b5090565b60006105d86105d384610925565b610900565b9050828152602081018484840111156105f057600080fd5b6105fb848285610a59565b509392505050565b600082601f83011261061457600080fd5b81356106248482602086016105c5565b91505092915050565b6000806040838503121561064057600080fd5b600083013567ffffffffffffffff81111561065a57600080fd5b61066685828601610603565b925050602083013567ffffffffffffffff81111561068357600080fd5b61068f85828601610603565b9150509250929050565b60006106a583836107d3565b905092915050565b6106b681610a1d565b82525050565b60006106c782610966565b6106d18185610989565b9350836020820285016106e385610956565b8060005b8581101561071f57848403895281516107008582610699565b945061070b8361097c565b925060208a019950506001810190506106e7565b50829750879550505050505092915050565b600061073c82610971565b61074681856109a5565b9350610756818560208601610a68565b61075f81610b8b565b840191505092915050565b6000610777600f836109b6565b915061078282610b9c565b602082019050919050565b600061079a601c836109b6565b91506107a582610bc5565b602082019050919050565b60006107bd60008361099a565b91506107c882610bee565b600082019050919050565b600060a0830160008301516107eb60008601826106ad565b50602083015184820360208601526108038282610731565b9150506040830151848203604086015261081d8282610731565b91505060608301516108326060860182610850565b5060808301516108456080860182610850565b508091505092915050565b61085981610a4f565b82525050565b61086881610a4f565b82525050565b6000610879826107b0565b9150819050919050565b6000602082019050818103600083015261089d81846106bc565b905092915050565b600060208201905081810360008301526108be8161076a565b9050919050565b600060208201905081810360008301526108de8161078d565b9050919050565b60006020820190506108fa600083018461085f565b92915050565b600061090a61091b565b90506109168282610acd565b919050565b6000604051905090565b600067ffffffffffffffff8211156109405761093f610b5c565b5b61094982610b8b565b9050602081019050919050565b6000819050602082019050919050565b600081519050919050565b600081519050919050565b6000602082019050919050565b600082825260208201905092915050565b600081905092915050565b600082825260208201905092915050565b600082825260208201905092915050565b60006109d282610a4f565b91506109dd83610a4f565b9250827fffffffffffffffffffffffffffffffffffffffffffffffffffffffffffffffff03821115610a1257610a11610afe565b5b828201905092915050565b6000610a2882610a2f565b9050919050565b600073ffffffffffffffffffffffffffffffffffffffff82169050919050565b6000819050919050565b82818337600083830152505050565b60005b83811015610a86578082015181840152602081019050610a6b565b83811115610a95576000848401525b50505050565b60006002820490506001821680610ab357607f821691505b60208210811415610ac757610ac6610b2d565b5b50919050565b610ad682610b8b565b810181811067ffffffffffffffff82111715610af557610af4610b5c565b5b80604052505050565b7f4e487b7100000000000000000000000000000000000000000000000000000000600052601160045260246000fd5b7f4e487b7100000000000000000000000000000000000000000000000000000000600052602260045260246000fd5b7f4e487b7100000000000000000000000000000000000000000000000000000000600052604160045260246000fd5b6000601f19601f8301169050919050565b7f5472616e73666572206661696c65640000000000000000000000000000000000600082015250565b7f596f756420646f6e2774206861766520656e6f7567682066756e647300000000600082015250565b5056fea2646970667358221220996eae331bbe88c030088550a15095df0a421c5b74d048ec27aa8c337434c76d64736f6c63430008040033",
  "linkReferences": {},
  "deployedLinkReferences": {}
}