{
  "_format": "hh-sol-artifact-1",
  "contractName": "TipJar",
  "sourceName": "src/contracts/TipJar.sol",
  "abi": [
    {
      "inputs": [],
      "stateMutability": "nonpayable",
      "type": "constructor"
    },
    {
      "anonymous": false,
      "inputs": [
        {
          "indexed": true,
          "internalType": "address",
          "name": "from",
          "type": "address"
        },
        {
          "indexed": false,
          "internalType": "string",
          "name": "message",
          "type": "string"
        },
        {
          "indexed": false,
          "internalType": "string",
          "name": "name",
          "type": "string"
        },
        {
          "indexed": false,
          "internalType": "uint256",
          "name": "amount",
          "type": "uint256"
        }
      ],
      "name": "NewTip",
      "type": "event"
    },
    {
      "anonymous": false,
      "inputs": [
        {
          "indexed": false,
          "internalType": "uint256",
          "name": "amount",
          "type": "uint256"
        }
      ],
      "name": "NewWithdraw",
      "type": "event"
    },
    {
      "inputs": [],
      "name": "getAllTips",
      "outputs": [
        {
          "components": [
            {
              "internalType": "address",
              "name": "sender",
              "type": "address"
            },
            {
              "internalType": "string",
              "name": "message",
              "type": "string"
            },
            {
              "internalType": "string",
              "name": "name",
              "type": "string"
            },
            {
              "internalType": "uint256",
              "name": "timestamp",
              "type": "uint256"
            },
            {
              "internalType": "uint256",
              "name": "amount",
              "type": "uint256"
            }
          ],
          "internalType": "struct TipJar.Tip[]",
          "name": "",
          "type": "tuple[]"
        }
      ],
      "stateMutability": "view",
      "type": "function"
    },
    {
      "inputs": [],
      "name": "owner",
      "outputs": [
        {
          "internalType": "address payable",
          "name": "",
          "type": "address"
        }
      ],
      "stateMutability": "view",
      "type": "function"
    },
    {
      "inputs": [
        {
          "internalType": "string",
          "name": "_message",
          "type": "string"
        },
        {
          "internalType": "string",
          "name": "_name",
          "type": "string"
        }
      ],
      "name": "sendTip",
      "outputs": [],
      "stateMutability": "payable",
      "type": "function"
    },
    {
      "inputs": [],
      "name": "totalTips",
      "outputs": [
        {
          "internalType": "uint256",
          "name": "",
          "type": "uint256"
        }
      ],
      "stateMutability": "view",
      "type": "function"
    },
    {
      "inputs": [],
      "name": "withdraw",
      "outputs": [],
      "stateMutability": "nonpayable",
      "type": "function"
    }
  ],
  "bytecode": "0x608060405234801561001057600080fd5b5033600160006101000a81548173ffffffffffffffffffffffffffffffffffffffff021916908373ffffffffffffffffffffffffffffffffffffffff160217905550610f5c806100616000396000f3fe60806040526004361061004a5760003560e01c8063399ddbbd1461004f5780633ccfd60b1461007a57806354cafb04146100915780638da5cb5b146100ad578063990de8ae146100d8575b600080fd5b34801561005b57600080fd5b50610064610103565b6040516100719190610acf565b60405180910390f35b34801561008657600080fd5b5061008f6102f0565b005b6100ab60048036038101906100a691906107d0565b6104d1565b005b3480156100b957600080fd5b506100c2610699565b6040516100cf9190610ab4565b60405180910390f35b3480156100e457600080fd5b506100ed6106bf565b6040516100fa9190610bb6565b60405180910390f35b60606002805480602002602001604051908101604052809291908181526020016000905b828210156102e757838290600052602060002090600502016040518060a00160405290816000820160009054906101000a900473ffffffffffffffffffffffffffffffffffffffff1673ffffffffffffffffffffffffffffffffffffffff1673ffffffffffffffffffffffffffffffffffffffff1681526020016001820180546101b090610d7e565b80601f01602080910402602001604051908101604052809291908181526020018280546101dc90610d7e565b80156102295780601f106101fe57610100808354040283529160200191610229565b820191906000526020600020905b81548152906001019060200180831161020c57829003601f168201915b5050505050815260200160028201805461024290610d7e565b80601f016020809104026020016040519081016040528092919081815260200182805461026e90610d7e565b80156102bb5780601f10610290576101008083540402835291602001916102bb565b820191906000526020600020905b81548152906001019060200180831161029e57829003601f168201915b505050505081526020016003820154815260200160048201548152505081526020019060010190610127565b50505050905090565b3373ffffffffffffffffffffffffffffffffffffffff16600160009054906101000a900473ffffffffffffffffffffffffffffffffffffffff1673ffffffffffffffffffffffffffffffffffffffff1614610380576040517f08c379a000000000000000000000000000000000000000000000000000000000815260040161037790610b96565b60405180910390fd5b6000479050600081116103c8576040517f08c379a00000000000000000000000000000000000000000000000000000000081526004016103bf90610b36565b60405180910390fd5b6000600160009054906101000a900473ffffffffffffffffffffffffffffffffffffffff1673ffffffffffffffffffffffffffffffffffffffff168260405161041090610a9f565b60006040518083038185875af1925050503d806000811461044d576040519150601f19603f3d011682016040523d82523d6000602084013e610452565b606091505b5050905080610496576040517f08c379a000000000000000000000000000000000000000000000000000000000815260040161048d90610b56565b60405180910390fd5b7f513127da5c0be50bc9c6763cb35c374fb3aa664ff0a1fad404452ada92b59924826040516104c59190610bb6565b60405180910390a15050565b343373ffffffffffffffffffffffffffffffffffffffff1631101561052b576040517f08c379a000000000000000000000000000000000000000000000000000000000815260040161052290610b76565b60405180910390fd5b600160008082825461053d9190610c98565b9250508190555060026040518060a001604052803373ffffffffffffffffffffffffffffffffffffffff16815260200184815260200183815260200142815260200134815250908060018154018082558091505060019003906000526020600020906005020160009091909190915060008201518160000160006101000a81548173ffffffffffffffffffffffffffffffffffffffff021916908373ffffffffffffffffffffffffffffffffffffffff160217905550602082015181600101908051906020019061060f9291906106c5565b50604082015181600201908051906020019061062c9291906106c5565b50606082015181600301556080820151816004015550503373ffffffffffffffffffffffffffffffffffffffff167fb1c1391b0c6c1e7244a4134896b4bc3f12d2c0cdfef990fac76eec58980a8baa83833460405161068d93929190610af1565b60405180910390a25050565b600160009054906101000a900473ffffffffffffffffffffffffffffffffffffffff1681565b60005481565b8280546106d190610d7e565b90600052602060002090601f0160209004810192826106f3576000855561073a565b82601f1061070c57805160ff191683800117855561073a565b8280016001018555821561073a579182015b8281111561073957825182559160200191906001019061071e565b5b509050610747919061074b565b5090565b5b8082111561076457600081600090555060010161074c565b5090565b600061077b61077684610bf6565b610bd1565b90508281526020810184848401111561079357600080fd5b61079e848285610d3c565b509392505050565b600082601f8301126107b757600080fd5b81356107c7848260208601610768565b91505092915050565b600080604083850312156107e357600080fd5b600083013567ffffffffffffffff8111156107fd57600080fd5b610809858286016107a6565b925050602083013567ffffffffffffffff81111561082657600080fd5b610832858286016107a6565b9150509250929050565b60006108488383610a04565b905092915050565b61085981610d00565b82525050565b61086881610cee565b82525050565b600061087982610c37565b6108838185610c5a565b93508360208202850161089585610c27565b8060005b858110156108d157848403895281516108b2858261083c565b94506108bd83610c4d565b925060208a01995050600181019050610899565b50829750879550505050505092915050565b60006108ee82610c42565b6108f88185610c76565b9350610908818560208601610d4b565b61091181610e6e565b840191505092915050565b600061092782610c42565b6109318185610c87565b9350610941818560208601610d4b565b61094a81610e6e565b840191505092915050565b6000610962601d83610c87565b915061096d82610e7f565b602082019050919050565b6000610985600f83610c87565b915061099082610ea8565b602082019050919050565b60006109a8601083610c87565b91506109b382610ed1565b602082019050919050565b60006109cb601783610c87565b91506109d682610efa565b602082019050919050565b60006109ee600083610c6b565b91506109f982610f23565b600082019050919050565b600060a083016000830151610a1c600086018261085f565b5060208301518482036020860152610a3482826108e3565b91505060408301518482036040860152610a4e82826108e3565b9150506060830151610a636060860182610a81565b506080830151610a766080860182610a81565b508091505092915050565b610a8a81610d32565b82525050565b610a9981610d32565b82525050565b6000610aaa826109e1565b9150819050919050565b6000602082019050610ac96000830184610850565b92915050565b60006020820190508181036000830152610ae9818461086e565b905092915050565b60006060820190508181036000830152610b0b818661091c565b90508181036020830152610b1f818561091c565b9050610b2e6040830184610a90565b949350505050565b60006020820190508181036000830152610b4f81610955565b9050919050565b60006020820190508181036000830152610b6f81610978565b9050919050565b60006020820190508181036000830152610b8f8161099b565b9050919050565b60006020820190508181036000830152610baf816109be565b9050919050565b6000602082019050610bcb6000830184610a90565b92915050565b6000610bdb610bec565b9050610be78282610db0565b919050565b6000604051905090565b600067ffffffffffffffff821115610c1157610c10610e3f565b5b610c1a82610e6e565b9050602081019050919050565b6000819050602082019050919050565b600081519050919050565b600081519050919050565b6000602082019050919050565b600082825260208201905092915050565b600081905092915050565b600082825260208201905092915050565b600082825260208201905092915050565b6000610ca382610d32565b9150610cae83610d32565b9250827fffffffffffffffffffffffffffffffffffffffffffffffffffffffffffffffff03821115610ce357610ce2610de1565b5b828201905092915050565b6000610cf982610d12565b9050919050565b6000610d0b82610d12565b9050919050565b600073ffffffffffffffffffffffffffffffffffffffff82169050919050565b6000819050919050565b82818337600083830152505050565b60005b83811015610d69578082015181840152602081019050610d4e565b83811115610d78576000848401525b50505050565b60006002820490506001821680610d9657607f821691505b60208210811415610daa57610da9610e10565b5b50919050565b610db982610e6e565b810181811067ffffffffffffffff82111715610dd857610dd7610e3f565b5b80604052505050565b7f4e487b7100000000000000000000000000000000000000000000000000000000600052601160045260246000fd5b7f4e487b7100000000000000000000000000000000000000000000000000000000600052602260045260246000fd5b7f4e487b7100000000000000000000000000000000000000000000000000000000600052604160045260246000fd5b6000601f19601f8301169050919050565b7f596f752068617665206e6f20657468657220746f207769746864726177000000600082015250565b7f5769746864726177206661696c65640000000000000000000000000000000000600082015250565b7f4e6f7420656e6f7567682066756e647300000000000000000000000000000000600082015250565b7f63616c6c6572206973206e6f7420746865206f776e6572000000000000000000600082015250565b5056fea2646970667358221220eb806efa759afedcf8f62bcf36d6f46e80bdb60d9ddc317832c374561bfb061164736f6c63430008040033",
  "linkReferences": {},
  "deployedLinkReferences": {}
}