{
  "_format": "hh-sol-artifact-1",
  "contractName": "TipJar",
  "sourceName": "src/contracts/TipJar.sol",
  "abi": [
    {
      "inputs": [],
      "stateMutability": "nonpayable",
      "type": "constructor"
    },
    {
      "anonymous": false,
      "inputs": [
        {
          "indexed": true,
          "internalType": "address",
          "name": "from",
          "type": "address"
        },
        {
          "indexed": false,
          "internalType": "string",
          "name": "message",
          "type": "string"
        },
        {
          "indexed": false,
          "internalType": "string",
          "name": "name",
          "type": "string"
        },
        {
          "indexed": false,
          "internalType": "uint256",
          "name": "amount",
          "type": "uint256"
        }
      ],
      "name": "NewTip",
      "type": "event"
    },
    {
      "anonymous": false,
      "inputs": [
        {
          "indexed": false,
          "internalType": "uint256",
          "name": "amount",
          "type": "uint256"
        }
      ],
      "name": "NewWithdrawl",
      "type": "event"
    },
    {
      "inputs": [],
      "name": "getAllTips",
      "outputs": [
        {
          "components": [
            {
              "internalType": "address",
              "name": "sender",
              "type": "address"
            },
            {
              "internalType": "string",
              "name": "message",
              "type": "string"
            },
            {
              "internalType": "string",
              "name": "name",
              "type": "string"
            },
            {
              "internalType": "uint256",
              "name": "timestamp",
              "type": "uint256"
            },
            {
              "internalType": "uint256",
              "name": "amount",
              "type": "uint256"
            }
          ],
          "internalType": "struct TipJar.Tip[]",
          "name": "",
          "type": "tuple[]"
        }
      ],
      "stateMutability": "view",
      "type": "function"
    },
    {
      "inputs": [],
      "name": "getTotalTips",
      "outputs": [
        {
          "internalType": "uint256",
          "name": "",
          "type": "uint256"
        }
      ],
      "stateMutability": "view",
      "type": "function"
    },
    {
      "inputs": [],
      "name": "owner",
      "outputs": [
        {
          "internalType": "address payable",
          "name": "",
          "type": "address"
        }
      ],
      "stateMutability": "view",
      "type": "function"
    },
    {
      "inputs": [
        {
          "internalType": "string",
          "name": "_message",
          "type": "string"
        },
        {
          "internalType": "string",
          "name": "_name",
          "type": "string"
        }
      ],
      "name": "sendTip",
      "outputs": [],
      "stateMutability": "payable",
      "type": "function"
    },
    {
      "inputs": [],
      "name": "totalTips",
      "outputs": [
        {
          "internalType": "uint256",
          "name": "",
          "type": "uint256"
        }
      ],
      "stateMutability": "view",
      "type": "function"
    },
    {
      "inputs": [],
      "name": "withdraw",
      "outputs": [],
      "stateMutability": "nonpayable",
      "type": "function"
    }
  ],
  "bytecode": "0x608060405234801561001057600080fd5b5033600160006101000a81548173ffffffffffffffffffffffffffffffffffffffff021916908373ffffffffffffffffffffffffffffffffffffffff160217905550610f9b806100616000396000f3fe6080604052600436106100555760003560e01c8063399ddbbd1461005a5780633ccfd60b1461008557806354cafb041461009c57806355f203b5146100b85780638da5cb5b146100e3578063990de8ae1461010e575b600080fd5b34801561006657600080fd5b5061006f610139565b60405161007c9190610b0e565b60405180910390f35b34801561009157600080fd5b5061009a610326565b005b6100b660048036038101906100b1919061080f565b610507565b005b3480156100c457600080fd5b506100cd6106cf565b6040516100da9190610bf5565b60405180910390f35b3480156100ef57600080fd5b506100f86106d8565b6040516101059190610af3565b60405180910390f35b34801561011a57600080fd5b506101236106fe565b6040516101309190610bf5565b60405180910390f35b60606002805480602002602001604051908101604052809291908181526020016000905b8282101561031d57838290600052602060002090600502016040518060a00160405290816000820160009054906101000a900473ffffffffffffffffffffffffffffffffffffffff1673ffffffffffffffffffffffffffffffffffffffff1673ffffffffffffffffffffffffffffffffffffffff1681526020016001820180546101e690610dbd565b80601f016020809104026020016040519081016040528092919081815260200182805461021290610dbd565b801561025f5780601f106102345761010080835404028352916020019161025f565b820191906000526020600020905b81548152906001019060200180831161024257829003601f168201915b5050505050815260200160028201805461027890610dbd565b80601f01602080910402602001604051908101604052809291908181526020018280546102a490610dbd565b80156102f15780601f106102c6576101008083540402835291602001916102f1565b820191906000526020600020905b8154815290600101906020018083116102d457829003601f168201915b50505050508152602001600382015481526020016004820154815250508152602001906001019061015d565b50505050905090565b3373ffffffffffffffffffffffffffffffffffffffff16600160009054906101000a900473ffffffffffffffffffffffffffffffffffffffff1673ffffffffffffffffffffffffffffffffffffffff16146103b6576040517f08c379a00000000000000000000000000000000000000000000000000000000081526004016103ad90610bd5565b60405180910390fd5b6000479050600081116103fe576040517f08c379a00000000000000000000000000000000000000000000000000000000081526004016103f590610b75565b60405180910390fd5b6000600160009054906101000a900473ffffffffffffffffffffffffffffffffffffffff1673ffffffffffffffffffffffffffffffffffffffff168260405161044690610ade565b60006040518083038185875af1925050503d8060008114610483576040519150601f19603f3d011682016040523d82523d6000602084013e610488565b606091505b50509050806104cc576040517f08c379a00000000000000000000000000000000000000000000000000000000081526004016104c390610b95565b60405180910390fd5b7f8a904c8c85fa231796f243f36a175a566ff158b34bc9572146d834ff18f29075826040516104fb9190610bf5565b60405180910390a15050565b343373ffffffffffffffffffffffffffffffffffffffff16311015610561576040517f08c379a000000000000000000000000000000000000000000000000000000000815260040161055890610bb5565b60405180910390fd5b60016000808282546105739190610cd7565b9250508190555060026040518060a001604052803373ffffffffffffffffffffffffffffffffffffffff16815260200184815260200183815260200142815260200134815250908060018154018082558091505060019003906000526020600020906005020160009091909190915060008201518160000160006101000a81548173ffffffffffffffffffffffffffffffffffffffff021916908373ffffffffffffffffffffffffffffffffffffffff1602179055506020820151816001019080519060200190610645929190610704565b506040820151816002019080519060200190610662929190610704565b50606082015181600301556080820151816004015550503373ffffffffffffffffffffffffffffffffffffffff167fb1c1391b0c6c1e7244a4134896b4bc3f12d2c0cdfef990fac76eec58980a8baa8383346040516106c393929190610b30565b60405180910390a25050565b60008054905090565b600160009054906101000a900473ffffffffffffffffffffffffffffffffffffffff1681565b60005481565b82805461071090610dbd565b90600052602060002090601f0160209004810192826107325760008555610779565b82601f1061074b57805160ff1916838001178555610779565b82800160010185558215610779579182015b8281111561077857825182559160200191906001019061075d565b5b509050610786919061078a565b5090565b5b808211156107a357600081600090555060010161078b565b5090565b60006107ba6107b584610c35565b610c10565b9050828152602081018484840111156107d257600080fd5b6107dd848285610d7b565b509392505050565b600082601f8301126107f657600080fd5b81356108068482602086016107a7565b91505092915050565b6000806040838503121561082257600080fd5b600083013567ffffffffffffffff81111561083c57600080fd5b610848858286016107e5565b925050602083013567ffffffffffffffff81111561086557600080fd5b610871858286016107e5565b9150509250929050565b60006108878383610a43565b905092915050565b61089881610d3f565b82525050565b6108a781610d2d565b82525050565b60006108b882610c76565b6108c28185610c99565b9350836020820285016108d485610c66565b8060005b8581101561091057848403895281516108f1858261087b565b94506108fc83610c8c565b925060208a019950506001810190506108d8565b50829750879550505050505092915050565b600061092d82610c81565b6109378185610cb5565b9350610947818560208601610d8a565b61095081610ead565b840191505092915050565b600061096682610c81565b6109708185610cc6565b9350610980818560208601610d8a565b61098981610ead565b840191505092915050565b60006109a1601d83610cc6565b91506109ac82610ebe565b602082019050919050565b60006109c4600f83610cc6565b91506109cf82610ee7565b602082019050919050565b60006109e7601c83610cc6565b91506109f282610f10565b602082019050919050565b6000610a0a601783610cc6565b9150610a1582610f39565b602082019050919050565b6000610a2d600083610caa565b9150610a3882610f62565b600082019050919050565b600060a083016000830151610a5b600086018261089e565b5060208301518482036020860152610a738282610922565b91505060408301518482036040860152610a8d8282610922565b9150506060830151610aa26060860182610ac0565b506080830151610ab56080860182610ac0565b508091505092915050565b610ac981610d71565b82525050565b610ad881610d71565b82525050565b6000610ae982610a20565b9150819050919050565b6000602082019050610b08600083018461088f565b92915050565b60006020820190508181036000830152610b2881846108ad565b905092915050565b60006060820190508181036000830152610b4a818661095b565b90508181036020830152610b5e818561095b565b9050610b6d6040830184610acf565b949350505050565b60006020820190508181036000830152610b8e81610994565b9050919050565b60006020820190508181036000830152610bae816109b7565b9050919050565b60006020820190508181036000830152610bce816109da565b9050919050565b60006020820190508181036000830152610bee816109fd565b9050919050565b6000602082019050610c0a6000830184610acf565b92915050565b6000610c1a610c2b565b9050610c268282610def565b919050565b6000604051905090565b600067ffffffffffffffff821115610c5057610c4f610e7e565b5b610c5982610ead565b9050602081019050919050565b6000819050602082019050919050565b600081519050919050565b600081519050919050565b6000602082019050919050565b600082825260208201905092915050565b600081905092915050565b600082825260208201905092915050565b600082825260208201905092915050565b6000610ce282610d71565b9150610ced83610d71565b9250827fffffffffffffffffffffffffffffffffffffffffffffffffffffffffffffffff03821115610d2257610d21610e20565b5b828201905092915050565b6000610d3882610d51565b9050919050565b6000610d4a82610d51565b9050919050565b600073ffffffffffffffffffffffffffffffffffffffff82169050919050565b6000819050919050565b82818337600083830152505050565b60005b83811015610da8578082015181840152602081019050610d8d565b83811115610db7576000848401525b50505050565b60006002820490506001821680610dd557607f821691505b60208210811415610de957610de8610e4f565b5b50919050565b610df882610ead565b810181811067ffffffffffffffff82111715610e1757610e16610e7e565b5b80604052505050565b7f4e487b7100000000000000000000000000000000000000000000000000000000600052601160045260246000fd5b7f4e487b7100000000000000000000000000000000000000000000000000000000600052602260045260246000fd5b7f4e487b7100000000000000000000000000000000000000000000000000000000600052604160045260246000fd5b6000601f19601f8301169050919050565b7f596f752068617665206e6f20657468657220746f207769746864726177000000600082015250565b7f5769746864726177206661696c65640000000000000000000000000000000000600082015250565b7f596f756420646f6e2774206861766520656e6f7567682066756e647300000000600082015250565b7f63616c6c6572206973206e6f7420746865206f776e6572000000000000000000600082015250565b5056fea26469706673582212205d8a3c05241776d81cc6f2d4fe43e4b3b62e11b6f339897ee5e864503b84d83364736f6c63430008040033",
  "linkReferences": {},
  "deployedLinkReferences": {}
}