{
  "_format": "hh-sol-artifact-1",
  "contractName": "TipJar",
  "sourceName": "src/contracts/TipJar.sol",
  "abi": [
    {
      "inputs": [],
      "stateMutability": "nonpayable",
      "type": "constructor"
    },
    {
      "inputs": [],
      "name": "totalTips",
      "outputs": [
        {
          "internalType": "uint256",
          "name": "",
          "type": "uint256"
        }
      ],
      "stateMutability": "view",
      "type": "function"
    }
  ],
  "bytecode": "0x608060405234801561001057600080fd5b506100596040518060400160405280601681526020017f546970204a617220536d61727420436f6e74726163740000000000000000000081525061005e60201b6100541760201c565b6101e1565b6100fa81604051602401610072919061015f565b6040516020818303038152906040527f41304fac000000000000000000000000000000000000000000000000000000007bffffffffffffffffffffffffffffffffffffffffffffffffffffffff19166020820180517bffffffffffffffffffffffffffffffffffffffffffffffffffffffff83818316178352505050506100fd60201b60201c565b50565b60008151905060006a636f6e736f6c652e6c6f679050602083016000808483855afa5050505050565b600061013182610181565b61013b818561018c565b935061014b81856020860161019d565b610154816101d0565b840191505092915050565b600060208201905081810360008301526101798184610126565b905092915050565b600081519050919050565b600082825260208201905092915050565b60005b838110156101bb5780820151818401526020810190506101a0565b838111156101ca576000848401525b50505050565b6000601f19601f8301169050919050565b61023b806101f06000396000f3fe608060405234801561001057600080fd5b506004361061002b5760003560e01c8063990de8ae14610030575b600080fd5b61003861004e565b6040516100459190610180565b60405180910390f35b60005481565b6100ea81604051602401610068919061015e565b6040516020818303038152906040527f41304fac000000000000000000000000000000000000000000000000000000007bffffffffffffffffffffffffffffffffffffffffffffffffffffffff19166020820180517bffffffffffffffffffffffffffffffffffffffffffffffffffffffff83818316178352505050506100ed565b50565b60008151905060006a636f6e736f6c652e6c6f679050602083016000808483855afa5050505050565b60006101218261019b565b61012b81856101a6565b935061013b8185602086016101c1565b610144816101f4565b840191505092915050565b610158816101b7565b82525050565b600060208201905081810360008301526101788184610116565b905092915050565b6000602082019050610195600083018461014f565b92915050565b600081519050919050565b600082825260208201905092915050565b6000819050919050565b60005b838110156101df5780820151818401526020810190506101c4565b838111156101ee576000848401525b50505050565b6000601f19601f830116905091905056fea2646970667358221220112fb4d099aca31ad6be6155f62041806ec6186b2ef7cbdafd8a1b020582318164736f6c63430008040033",
  "linkReferences": {},
  "deployedLinkReferences": {}
}