{
  "_format": "hh-sol-artifact-1",
  "contractName": "TipJar",
  "sourceName": "src/contracts/TipJar.sol",
  "abi": [
    {
      "inputs": [],
      "stateMutability": "nonpayable",
      "type": "constructor"
    },
    {
      "anonymous": false,
      "inputs": [
        {
          "indexed": true,
          "internalType": "address",
          "name": "from",
          "type": "address"
        },
        {
          "indexed": false,
          "internalType": "string",
          "name": "message",
          "type": "string"
        },
        {
          "indexed": false,
          "internalType": "string",
          "name": "name",
          "type": "string"
        },
        {
          "indexed": false,
          "internalType": "uint256",
          "name": "amount",
          "type": "uint256"
        }
      ],
      "name": "NewTip",
      "type": "event"
    },
    {
      "inputs": [],
      "name": "getAllTips",
      "outputs": [
        {
          "components": [
            {
              "internalType": "address",
              "name": "sender",
              "type": "address"
            },
            {
              "internalType": "string",
              "name": "message",
              "type": "string"
            },
            {
              "internalType": "string",
              "name": "name",
              "type": "string"
            },
            {
              "internalType": "uint256",
              "name": "timestamp",
              "type": "uint256"
            },
            {
              "internalType": "uint256",
              "name": "amount",
              "type": "uint256"
            }
          ],
          "internalType": "struct TipJar.Tip[]",
          "name": "",
          "type": "tuple[]"
        }
      ],
      "stateMutability": "view",
      "type": "function"
    },
    {
      "inputs": [],
      "name": "getTotalTips",
      "outputs": [
        {
          "internalType": "uint256",
          "name": "",
          "type": "uint256"
        }
      ],
      "stateMutability": "view",
      "type": "function"
    },
    {
      "inputs": [
        {
          "internalType": "string",
          "name": "_message",
          "type": "string"
        },
        {
          "internalType": "string",
          "name": "_name",
          "type": "string"
        }
      ],
      "name": "sendTip",
      "outputs": [],
      "stateMutability": "payable",
      "type": "function"
    },
    {
      "inputs": [],
      "name": "totalTips",
      "outputs": [
        {
          "internalType": "uint256",
          "name": "",
          "type": "uint256"
        }
      ],
      "stateMutability": "view",
      "type": "function"
    }
  ],
  "bytecode": "0x608060405234801561001057600080fd5b5033600160006101000a81548173ffffffffffffffffffffffffffffffffffffffff021916908373ffffffffffffffffffffffffffffffffffffffff160217905550610cf7806100616000396000f3fe60806040526004361061003f5760003560e01c8063399ddbbd1461004457806354cafb041461006f57806355f203b51461008b578063990de8ae146100b6575b600080fd5b34801561005057600080fd5b506100596100e1565b604051610066919061090e565b60405180910390f35b6100896004803603810190610084919061067f565b6102ce565b005b34801561009757600080fd5b506100a0610565565b6040516100ad91906109b5565b60405180910390f35b3480156100c257600080fd5b506100cb61056e565b6040516100d891906109b5565b60405180910390f35b60606002805480602002602001604051908101604052809291908181526020016000905b828210156102c557838290600052602060002090600502016040518060a00160405290816000820160009054906101000a900473ffffffffffffffffffffffffffffffffffffffff1673ffffffffffffffffffffffffffffffffffffffff1673ffffffffffffffffffffffffffffffffffffffff16815260200160018201805461018e90610b6b565b80601f01602080910402602001604051908101604052809291908181526020018280546101ba90610b6b565b80156102075780601f106101dc57610100808354040283529160200191610207565b820191906000526020600020905b8154815290600101906020018083116101ea57829003601f168201915b5050505050815260200160028201805461022090610b6b565b80601f016020809104026020016040519081016040528092919081815260200182805461024c90610b6b565b80156102995780601f1061026e57610100808354040283529160200191610299565b820191906000526020600020905b81548152906001019060200180831161027c57829003601f168201915b505050505081526020016003820154815260200160048201548152505081526020019060010190610105565b50505050905090565b343373ffffffffffffffffffffffffffffffffffffffff16311015610328576040517f08c379a000000000000000000000000000000000000000000000000000000000815260040161031f90610995565b60405180910390fd5b6000600160009054906101000a900473ffffffffffffffffffffffffffffffffffffffff1673ffffffffffffffffffffffffffffffffffffffff1634604051610370906108f9565b60006040518083038185875af1925050503d80600081146103ad576040519150601f19603f3d011682016040523d82523d6000602084013e6103b2565b606091505b50509050806103f6576040517f08c379a00000000000000000000000000000000000000000000000000000000081526004016103ed90610975565b60405180910390fd5b60016000808282546104089190610a97565b9250508190555060026040518060a001604052803373ffffffffffffffffffffffffffffffffffffffff16815260200185815260200184815260200142815260200134815250908060018154018082558091505060019003906000526020600020906005020160009091909190915060008201518160000160006101000a81548173ffffffffffffffffffffffffffffffffffffffff021916908373ffffffffffffffffffffffffffffffffffffffff16021790555060208201518160010190805190602001906104da929190610574565b5060408201518160020190805190602001906104f7929190610574565b50606082015181600301556080820151816004015550503373ffffffffffffffffffffffffffffffffffffffff167fb1c1391b0c6c1e7244a4134896b4bc3f12d2c0cdfef990fac76eec58980a8baa84843460405161055893929190610930565b60405180910390a2505050565b60008054905090565b60005481565b82805461058090610b6b565b90600052602060002090601f0160209004810192826105a257600085556105e9565b82601f106105bb57805160ff19168380011785556105e9565b828001600101855582156105e9579182015b828111156105e85782518255916020019190600101906105cd565b5b5090506105f691906105fa565b5090565b5b808211156106135760008160009055506001016105fb565b5090565b600061062a610625846109f5565b6109d0565b90508281526020810184848401111561064257600080fd5b61064d848285610b29565b509392505050565b600082601f83011261066657600080fd5b8135610676848260208601610617565b91505092915050565b6000806040838503121561069257600080fd5b600083013567ffffffffffffffff8111156106ac57600080fd5b6106b885828601610655565b925050602083013567ffffffffffffffff8111156106d557600080fd5b6106e185828601610655565b9150509250929050565b60006106f7838361085e565b905092915050565b61070881610aed565b82525050565b600061071982610a36565b6107238185610a59565b93508360208202850161073585610a26565b8060005b85811015610771578484038952815161075285826106eb565b945061075d83610a4c565b925060208a01995050600181019050610739565b50829750879550505050505092915050565b600061078e82610a41565b6107988185610a75565b93506107a8818560208601610b38565b6107b181610c5b565b840191505092915050565b60006107c782610a41565b6107d18185610a86565b93506107e1818560208601610b38565b6107ea81610c5b565b840191505092915050565b6000610802600f83610a86565b915061080d82610c6c565b602082019050919050565b6000610825601c83610a86565b915061083082610c95565b602082019050919050565b6000610848600083610a6a565b915061085382610cbe565b600082019050919050565b600060a08301600083015161087660008601826106ff565b506020830151848203602086015261088e8282610783565b915050604083015184820360408601526108a88282610783565b91505060608301516108bd60608601826108db565b5060808301516108d060808601826108db565b508091505092915050565b6108e481610b1f565b82525050565b6108f381610b1f565b82525050565b60006109048261083b565b9150819050919050565b60006020820190508181036000830152610928818461070e565b905092915050565b6000606082019050818103600083015261094a81866107bc565b9050818103602083015261095e81856107bc565b905061096d60408301846108ea565b949350505050565b6000602082019050818103600083015261098e816107f5565b9050919050565b600060208201905081810360008301526109ae81610818565b9050919050565b60006020820190506109ca60008301846108ea565b92915050565b60006109da6109eb565b90506109e68282610b9d565b919050565b6000604051905090565b600067ffffffffffffffff821115610a1057610a0f610c2c565b5b610a1982610c5b565b9050602081019050919050565b6000819050602082019050919050565b600081519050919050565b600081519050919050565b6000602082019050919050565b600082825260208201905092915050565b600081905092915050565b600082825260208201905092915050565b600082825260208201905092915050565b6000610aa282610b1f565b9150610aad83610b1f565b9250827fffffffffffffffffffffffffffffffffffffffffffffffffffffffffffffffff03821115610ae257610ae1610bce565b5b828201905092915050565b6000610af882610aff565b9050919050565b600073ffffffffffffffffffffffffffffffffffffffff82169050919050565b6000819050919050565b82818337600083830152505050565b60005b83811015610b56578082015181840152602081019050610b3b565b83811115610b65576000848401525b50505050565b60006002820490506001821680610b8357607f821691505b60208210811415610b9757610b96610bfd565b5b50919050565b610ba682610c5b565b810181811067ffffffffffffffff82111715610bc557610bc4610c2c565b5b80604052505050565b7f4e487b7100000000000000000000000000000000000000000000000000000000600052601160045260246000fd5b7f4e487b7100000000000000000000000000000000000000000000000000000000600052602260045260246000fd5b7f4e487b7100000000000000000000000000000000000000000000000000000000600052604160045260246000fd5b6000601f19601f8301169050919050565b7f5472616e73666572206661696c65640000000000000000000000000000000000600082015250565b7f596f756420646f6e2774206861766520656e6f7567682066756e647300000000600082015250565b5056fea264697066735822122024e285603bb81ae6960284f39be25ca9ccad16a335eb064636cdc9a67a21fb6964736f6c63430008040033",
  "linkReferences": {},
  "deployedLinkReferences": {}
}