{
  "_format": "hh-sol-artifact-1",
  "contractName": "TipJar",
  "sourceName": "src/contracts/TipJar.sol",
  "abi": [
    {
      "inputs": [],
      "stateMutability": "nonpayable",
      "type": "constructor"
    },
    {
      "anonymous": false,
      "inputs": [
        {
          "indexed": true,
          "internalType": "address",
          "name": "from",
          "type": "address"
        },
        {
          "indexed": false,
          "internalType": "string",
          "name": "message",
          "type": "string"
        },
        {
          "indexed": false,
          "internalType": "string",
          "name": "name",
          "type": "string"
        },
        {
          "indexed": false,
          "internalType": "uint256",
          "name": "amount",
          "type": "uint256"
        }
      ],
      "name": "NewTip",
      "type": "event"
    },
    {
      "anonymous": false,
      "inputs": [
        {
          "indexed": false,
          "internalType": "uint256",
          "name": "amount",
          "type": "uint256"
        }
      ],
      "name": "NewWithdrawl",
      "type": "event"
    },
    {
      "inputs": [],
      "name": "getAllTips",
      "outputs": [
        {
          "components": [
            {
              "internalType": "address",
              "name": "sender",
              "type": "address"
            },
            {
              "internalType": "string",
              "name": "message",
              "type": "string"
            },
            {
              "internalType": "string",
              "name": "name",
              "type": "string"
            },
            {
              "internalType": "uint256",
              "name": "timestamp",
              "type": "uint256"
            },
            {
              "internalType": "uint256",
              "name": "amount",
              "type": "uint256"
            }
          ],
          "internalType": "struct TipJar.Tip[]",
          "name": "",
          "type": "tuple[]"
        }
      ],
      "stateMutability": "view",
      "type": "function"
    },
    {
      "inputs": [],
      "name": "getTotalTips",
      "outputs": [
        {
          "internalType": "uint256",
          "name": "",
          "type": "uint256"
        }
      ],
      "stateMutability": "view",
      "type": "function"
    },
    {
      "inputs": [
        {
          "internalType": "string",
          "name": "_message",
          "type": "string"
        },
        {
          "internalType": "string",
          "name": "_name",
          "type": "string"
        }
      ],
      "name": "sendTip",
      "outputs": [],
      "stateMutability": "payable",
      "type": "function"
    },
    {
      "inputs": [],
      "name": "totalTips",
      "outputs": [
        {
          "internalType": "uint256",
          "name": "",
          "type": "uint256"
        }
      ],
      "stateMutability": "view",
      "type": "function"
    },
    {
      "inputs": [],
      "name": "withdraw",
      "outputs": [],
      "stateMutability": "nonpayable",
      "type": "function"
    }
  ],
  "bytecode": "0x608060405234801561001057600080fd5b5033600160006101000a81548173ffffffffffffffffffffffffffffffffffffffff021916908373ffffffffffffffffffffffffffffffffffffffff160217905550610f03806100616000396000f3fe60806040526004361061004a5760003560e01c8063399ddbbd1461004f5780633ccfd60b1461007a57806354cafb041461009157806355f203b5146100ad578063990de8ae146100d8575b600080fd5b34801561005b57600080fd5b50610064610103565b6040516100719190610a88565b60405180910390f35b34801561008657600080fd5b5061008f6102f0565b005b6100ab60048036038101906100a691906107b3565b6104d1565b005b3480156100b957600080fd5b506100c2610699565b6040516100cf9190610b6f565b60405180910390f35b3480156100e457600080fd5b506100ed6106a2565b6040516100fa9190610b6f565b60405180910390f35b60606002805480602002602001604051908101604052809291908181526020016000905b828210156102e757838290600052602060002090600502016040518060a00160405290816000820160009054906101000a900473ffffffffffffffffffffffffffffffffffffffff1673ffffffffffffffffffffffffffffffffffffffff1673ffffffffffffffffffffffffffffffffffffffff1681526020016001820180546101b090610d25565b80601f01602080910402602001604051908101604052809291908181526020018280546101dc90610d25565b80156102295780601f106101fe57610100808354040283529160200191610229565b820191906000526020600020905b81548152906001019060200180831161020c57829003601f168201915b5050505050815260200160028201805461024290610d25565b80601f016020809104026020016040519081016040528092919081815260200182805461026e90610d25565b80156102bb5780601f10610290576101008083540402835291602001916102bb565b820191906000526020600020905b81548152906001019060200180831161029e57829003601f168201915b505050505081526020016003820154815260200160048201548152505081526020019060010190610127565b50505050905090565b3373ffffffffffffffffffffffffffffffffffffffff16600160009054906101000a900473ffffffffffffffffffffffffffffffffffffffff1673ffffffffffffffffffffffffffffffffffffffff1614610380576040517f08c379a000000000000000000000000000000000000000000000000000000000815260040161037790610b4f565b60405180910390fd5b6000479050600081116103c8576040517f08c379a00000000000000000000000000000000000000000000000000000000081526004016103bf90610aef565b60405180910390fd5b6000600160009054906101000a900473ffffffffffffffffffffffffffffffffffffffff1673ffffffffffffffffffffffffffffffffffffffff168260405161041090610a73565b60006040518083038185875af1925050503d806000811461044d576040519150601f19603f3d011682016040523d82523d6000602084013e610452565b606091505b5050905080610496576040517f08c379a000000000000000000000000000000000000000000000000000000000815260040161048d90610b0f565b60405180910390fd5b7f8a904c8c85fa231796f243f36a175a566ff158b34bc9572146d834ff18f29075826040516104c59190610b6f565b60405180910390a15050565b343373ffffffffffffffffffffffffffffffffffffffff1631101561052b576040517f08c379a000000000000000000000000000000000000000000000000000000000815260040161052290610b2f565b60405180910390fd5b600160008082825461053d9190610c51565b9250508190555060026040518060a001604052803373ffffffffffffffffffffffffffffffffffffffff16815260200184815260200183815260200142815260200134815250908060018154018082558091505060019003906000526020600020906005020160009091909190915060008201518160000160006101000a81548173ffffffffffffffffffffffffffffffffffffffff021916908373ffffffffffffffffffffffffffffffffffffffff160217905550602082015181600101908051906020019061060f9291906106a8565b50604082015181600201908051906020019061062c9291906106a8565b50606082015181600301556080820151816004015550503373ffffffffffffffffffffffffffffffffffffffff167fb1c1391b0c6c1e7244a4134896b4bc3f12d2c0cdfef990fac76eec58980a8baa83833460405161068d93929190610aaa565b60405180910390a25050565b60008054905090565b60005481565b8280546106b490610d25565b90600052602060002090601f0160209004810192826106d6576000855561071d565b82601f106106ef57805160ff191683800117855561071d565b8280016001018555821561071d579182015b8281111561071c578251825591602001919060010190610701565b5b50905061072a919061072e565b5090565b5b8082111561074757600081600090555060010161072f565b5090565b600061075e61075984610baf565b610b8a565b90508281526020810184848401111561077657600080fd5b610781848285610ce3565b509392505050565b600082601f83011261079a57600080fd5b81356107aa84826020860161074b565b91505092915050565b600080604083850312156107c657600080fd5b600083013567ffffffffffffffff8111156107e057600080fd5b6107ec85828601610789565b925050602083013567ffffffffffffffff81111561080957600080fd5b61081585828601610789565b9150509250929050565b600061082b83836109d8565b905092915050565b61083c81610ca7565b82525050565b600061084d82610bf0565b6108578185610c13565b93508360208202850161086985610be0565b8060005b858110156108a55784840389528151610886858261081f565b945061089183610c06565b925060208a0199505060018101905061086d565b50829750879550505050505092915050565b60006108c282610bfb565b6108cc8185610c2f565b93506108dc818560208601610cf2565b6108e581610e15565b840191505092915050565b60006108fb82610bfb565b6109058185610c40565b9350610915818560208601610cf2565b61091e81610e15565b840191505092915050565b6000610936601d83610c40565b915061094182610e26565b602082019050919050565b6000610959600f83610c40565b915061096482610e4f565b602082019050919050565b600061097c601c83610c40565b915061098782610e78565b602082019050919050565b600061099f601783610c40565b91506109aa82610ea1565b602082019050919050565b60006109c2600083610c24565b91506109cd82610eca565b600082019050919050565b600060a0830160008301516109f06000860182610833565b5060208301518482036020860152610a0882826108b7565b91505060408301518482036040860152610a2282826108b7565b9150506060830151610a376060860182610a55565b506080830151610a4a6080860182610a55565b508091505092915050565b610a5e81610cd9565b82525050565b610a6d81610cd9565b82525050565b6000610a7e826109b5565b9150819050919050565b60006020820190508181036000830152610aa28184610842565b905092915050565b60006060820190508181036000830152610ac481866108f0565b90508181036020830152610ad881856108f0565b9050610ae76040830184610a64565b949350505050565b60006020820190508181036000830152610b0881610929565b9050919050565b60006020820190508181036000830152610b288161094c565b9050919050565b60006020820190508181036000830152610b488161096f565b9050919050565b60006020820190508181036000830152610b6881610992565b9050919050565b6000602082019050610b846000830184610a64565b92915050565b6000610b94610ba5565b9050610ba08282610d57565b919050565b6000604051905090565b600067ffffffffffffffff821115610bca57610bc9610de6565b5b610bd382610e15565b9050602081019050919050565b6000819050602082019050919050565b600081519050919050565b600081519050919050565b6000602082019050919050565b600082825260208201905092915050565b600081905092915050565b600082825260208201905092915050565b600082825260208201905092915050565b6000610c5c82610cd9565b9150610c6783610cd9565b9250827fffffffffffffffffffffffffffffffffffffffffffffffffffffffffffffffff03821115610c9c57610c9b610d88565b5b828201905092915050565b6000610cb282610cb9565b9050919050565b600073ffffffffffffffffffffffffffffffffffffffff82169050919050565b6000819050919050565b82818337600083830152505050565b60005b83811015610d10578082015181840152602081019050610cf5565b83811115610d1f576000848401525b50505050565b60006002820490506001821680610d3d57607f821691505b60208210811415610d5157610d50610db7565b5b50919050565b610d6082610e15565b810181811067ffffffffffffffff82111715610d7f57610d7e610de6565b5b80604052505050565b7f4e487b7100000000000000000000000000000000000000000000000000000000600052601160045260246000fd5b7f4e487b7100000000000000000000000000000000000000000000000000000000600052602260045260246000fd5b7f4e487b7100000000000000000000000000000000000000000000000000000000600052604160045260246000fd5b6000601f19601f8301169050919050565b7f596f752068617665206e6f20657468657220746f207769746864726177000000600082015250565b7f5769746864726177206661696c65640000000000000000000000000000000000600082015250565b7f596f756420646f6e2774206861766520656e6f7567682066756e647300000000600082015250565b7f63616c6c6572206973206e6f7420746865206f776e6572000000000000000000600082015250565b5056fea2646970667358221220ff201fcc615801876006af3fbc88d443ab2b5f7ef8fbbd82178f13d3ec726e0d64736f6c63430008040033",
  "linkReferences": {},
  "deployedLinkReferences": {}
}