{
  "_format": "hh-sol-artifact-1",
  "contractName": "TipJar",
  "sourceName": "src/contracts/TipJar.sol",
  "abi": [
    {
      "inputs": [],
      "stateMutability": "nonpayable",
      "type": "constructor"
    },
    {
      "anonymous": false,
      "inputs": [
        {
          "indexed": true,
          "internalType": "address",
          "name": "from",
          "type": "address"
        },
        {
          "indexed": false,
          "internalType": "string",
          "name": "message",
          "type": "string"
        },
        {
          "indexed": false,
          "internalType": "string",
          "name": "name",
          "type": "string"
        },
        {
          "indexed": false,
          "internalType": "uint256",
          "name": "amount",
          "type": "uint256"
        }
      ],
      "name": "NewTip",
      "type": "event"
    },
    {
      "anonymous": false,
      "inputs": [
        {
          "indexed": false,
          "internalType": "uint256",
          "name": "amount",
          "type": "uint256"
        }
      ],
      "name": "NewWithdrawl",
      "type": "event"
    },
    {
      "inputs": [
        {
          "internalType": "address",
          "name": "",
          "type": "address"
        }
      ],
      "name": "balances",
      "outputs": [
        {
          "internalType": "uint256",
          "name": "",
          "type": "uint256"
        }
      ],
      "stateMutability": "view",
      "type": "function"
    },
    {
      "inputs": [],
      "name": "getAllTips",
      "outputs": [
        {
          "components": [
            {
              "internalType": "address",
              "name": "sender",
              "type": "address"
            },
            {
              "internalType": "string",
              "name": "message",
              "type": "string"
            },
            {
              "internalType": "string",
              "name": "name",
              "type": "string"
            },
            {
              "internalType": "uint256",
              "name": "timestamp",
              "type": "uint256"
            },
            {
              "internalType": "uint256",
              "name": "amount",
              "type": "uint256"
            }
          ],
          "internalType": "struct TipJar.Tip[]",
          "name": "",
          "type": "tuple[]"
        }
      ],
      "stateMutability": "view",
      "type": "function"
    },
    {
      "inputs": [],
      "name": "getTotalTips",
      "outputs": [
        {
          "internalType": "uint256",
          "name": "",
          "type": "uint256"
        }
      ],
      "stateMutability": "view",
      "type": "function"
    },
    {
      "inputs": [
        {
          "internalType": "string",
          "name": "_message",
          "type": "string"
        },
        {
          "internalType": "string",
          "name": "_name",
          "type": "string"
        }
      ],
      "name": "sendTip",
      "outputs": [],
      "stateMutability": "payable",
      "type": "function"
    },
    {
      "inputs": [],
      "name": "totalTips",
      "outputs": [
        {
          "internalType": "uint256",
          "name": "",
          "type": "uint256"
        }
      ],
      "stateMutability": "view",
      "type": "function"
    },
    {
      "inputs": [],
      "name": "withdraw",
      "outputs": [],
      "stateMutability": "nonpayable",
      "type": "function"
    }
  ],
  "bytecode": "0x608060405234801561001057600080fd5b5033600160006101000a81548173ffffffffffffffffffffffffffffffffffffffff021916908373ffffffffffffffffffffffffffffffffffffffff160217905550610fb8806100616000396000f3fe6080604052600436106100555760003560e01c806327e235e31461005a578063399ddbbd146100975780633ccfd60b146100c257806354cafb04146100d957806355f203b5146100f5578063990de8ae14610120575b600080fd5b34801561006657600080fd5b50610081600480360381019061007c9190610828565b61014b565b60405161008e9190610c0d565b60405180910390f35b3480156100a357600080fd5b506100ac610163565b6040516100b99190610b26565b60405180910390f35b3480156100ce57600080fd5b506100d7610350565b005b6100f360048036038101906100ee9190610851565b610531565b005b34801561010157600080fd5b5061010a6106f9565b6040516101179190610c0d565b60405180910390f35b34801561012c57600080fd5b50610135610702565b6040516101429190610c0d565b60405180910390f35b60036020528060005260406000206000915090505481565b60606002805480602002602001604051908101604052809291908181526020016000905b8282101561034757838290600052602060002090600502016040518060a00160405290816000820160009054906101000a900473ffffffffffffffffffffffffffffffffffffffff1673ffffffffffffffffffffffffffffffffffffffff1673ffffffffffffffffffffffffffffffffffffffff16815260200160018201805461021090610dc3565b80601f016020809104026020016040519081016040528092919081815260200182805461023c90610dc3565b80156102895780601f1061025e57610100808354040283529160200191610289565b820191906000526020600020905b81548152906001019060200180831161026c57829003601f168201915b505050505081526020016002820180546102a290610dc3565b80601f01602080910402602001604051908101604052809291908181526020018280546102ce90610dc3565b801561031b5780601f106102f05761010080835404028352916020019161031b565b820191906000526020600020905b8154815290600101906020018083116102fe57829003601f168201915b505050505081526020016003820154815260200160048201548152505081526020019060010190610187565b50505050905090565b3373ffffffffffffffffffffffffffffffffffffffff16600160009054906101000a900473ffffffffffffffffffffffffffffffffffffffff1673ffffffffffffffffffffffffffffffffffffffff16146103e0576040517f08c379a00000000000000000000000000000000000000000000000000000000081526004016103d790610bed565b60405180910390fd5b600047905060008111610428576040517f08c379a000000000000000000000000000000000000000000000000000000000815260040161041f90610b8d565b60405180910390fd5b6000600160009054906101000a900473ffffffffffffffffffffffffffffffffffffffff1673ffffffffffffffffffffffffffffffffffffffff168260405161047090610b11565b60006040518083038185875af1925050503d80600081146104ad576040519150601f19603f3d011682016040523d82523d6000602084013e6104b2565b606091505b50509050806104f6576040517f08c379a00000000000000000000000000000000000000000000000000000000081526004016104ed90610bad565b60405180910390fd5b7f8a904c8c85fa231796f243f36a175a566ff158b34bc9572146d834ff18f29075826040516105259190610c0d565b60405180910390a15050565b343373ffffffffffffffffffffffffffffffffffffffff1631101561058b576040517f08c379a000000000000000000000000000000000000000000000000000000000815260040161058290610bcd565b60405180910390fd5b600160008082825461059d9190610cef565b9250508190555060026040518060a001604052803373ffffffffffffffffffffffffffffffffffffffff16815260200184815260200183815260200142815260200134815250908060018154018082558091505060019003906000526020600020906005020160009091909190915060008201518160000160006101000a81548173ffffffffffffffffffffffffffffffffffffffff021916908373ffffffffffffffffffffffffffffffffffffffff160217905550602082015181600101908051906020019061066f929190610708565b50604082015181600201908051906020019061068c929190610708565b50606082015181600301556080820151816004015550503373ffffffffffffffffffffffffffffffffffffffff167fb1c1391b0c6c1e7244a4134896b4bc3f12d2c0cdfef990fac76eec58980a8baa8383346040516106ed93929190610b48565b60405180910390a25050565b60008054905090565b60005481565b82805461071490610dc3565b90600052602060002090601f016020900481019282610736576000855561077d565b82601f1061074f57805160ff191683800117855561077d565b8280016001018555821561077d579182015b8281111561077c578251825591602001919060010190610761565b5b50905061078a919061078e565b5090565b5b808211156107a757600081600090555060010161078f565b5090565b60006107be6107b984610c4d565b610c28565b9050828152602081018484840111156107d657600080fd5b6107e1848285610d81565b509392505050565b6000813590506107f881610f6b565b92915050565b600082601f83011261080f57600080fd5b813561081f8482602086016107ab565b91505092915050565b60006020828403121561083a57600080fd5b6000610848848285016107e9565b91505092915050565b6000806040838503121561086457600080fd5b600083013567ffffffffffffffff81111561087e57600080fd5b61088a858286016107fe565b925050602083013567ffffffffffffffff8111156108a757600080fd5b6108b3858286016107fe565b9150509250929050565b60006108c98383610a76565b905092915050565b6108da81610d45565b82525050565b60006108eb82610c8e565b6108f58185610cb1565b93508360208202850161090785610c7e565b8060005b85811015610943578484038952815161092485826108bd565b945061092f83610ca4565b925060208a0199505060018101905061090b565b50829750879550505050505092915050565b600061096082610c99565b61096a8185610ccd565b935061097a818560208601610d90565b61098381610eb3565b840191505092915050565b600061099982610c99565b6109a38185610cde565b93506109b3818560208601610d90565b6109bc81610eb3565b840191505092915050565b60006109d4601d83610cde565b91506109df82610ec4565b602082019050919050565b60006109f7600f83610cde565b9150610a0282610eed565b602082019050919050565b6000610a1a601c83610cde565b9150610a2582610f16565b602082019050919050565b6000610a3d601783610cde565b9150610a4882610f3f565b602082019050919050565b6000610a60600083610cc2565b9150610a6b82610f68565b600082019050919050565b600060a083016000830151610a8e60008601826108d1565b5060208301518482036020860152610aa68282610955565b91505060408301518482036040860152610ac08282610955565b9150506060830151610ad56060860182610af3565b506080830151610ae86080860182610af3565b508091505092915050565b610afc81610d77565b82525050565b610b0b81610d77565b82525050565b6000610b1c82610a53565b9150819050919050565b60006020820190508181036000830152610b4081846108e0565b905092915050565b60006060820190508181036000830152610b62818661098e565b90508181036020830152610b76818561098e565b9050610b856040830184610b02565b949350505050565b60006020820190508181036000830152610ba6816109c7565b9050919050565b60006020820190508181036000830152610bc6816109ea565b9050919050565b60006020820190508181036000830152610be681610a0d565b9050919050565b60006020820190508181036000830152610c0681610a30565b9050919050565b6000602082019050610c226000830184610b02565b92915050565b6000610c32610c43565b9050610c3e8282610df5565b919050565b6000604051905090565b600067ffffffffffffffff821115610c6857610c67610e84565b5b610c7182610eb3565b9050602081019050919050565b6000819050602082019050919050565b600081519050919050565b600081519050919050565b6000602082019050919050565b600082825260208201905092915050565b600081905092915050565b600082825260208201905092915050565b600082825260208201905092915050565b6000610cfa82610d77565b9150610d0583610d77565b9250827fffffffffffffffffffffffffffffffffffffffffffffffffffffffffffffffff03821115610d3a57610d39610e26565b5b828201905092915050565b6000610d5082610d57565b9050919050565b600073ffffffffffffffffffffffffffffffffffffffff82169050919050565b6000819050919050565b82818337600083830152505050565b60005b83811015610dae578082015181840152602081019050610d93565b83811115610dbd576000848401525b50505050565b60006002820490506001821680610ddb57607f821691505b60208210811415610def57610dee610e55565b5b50919050565b610dfe82610eb3565b810181811067ffffffffffffffff82111715610e1d57610e1c610e84565b5b80604052505050565b7f4e487b7100000000000000000000000000000000000000000000000000000000600052601160045260246000fd5b7f4e487b7100000000000000000000000000000000000000000000000000000000600052602260045260246000fd5b7f4e487b7100000000000000000000000000000000000000000000000000000000600052604160045260246000fd5b6000601f19601f8301169050919050565b7f596f752068617665206e6f20657468657220746f207769746864726177000000600082015250565b7f5769746864726177206661696c65640000000000000000000000000000000000600082015250565b7f596f756420646f6e2774206861766520656e6f7567682066756e647300000000600082015250565b7f63616c6c6572206973206e6f7420746865206f776e6572000000000000000000600082015250565b50565b610f7481610d45565b8114610f7f57600080fd5b5056fea26469706673582212202202d7a33241e36be37ef3d792f633ad71db31e840f132c453001ae22e2250ab64736f6c63430008040033",
  "linkReferences": {},
  "deployedLinkReferences": {}
}