{
  "_format": "hh-sol-artifact-1",
  "contractName": "TipJar",
  "sourceName": "src/contracts/TipJar.sol",
  "abi": [
    {
      "inputs": [],
      "stateMutability": "nonpayable",
      "type": "constructor"
    },
    {
      "anonymous": false,
      "inputs": [
        {
          "indexed": true,
          "internalType": "address",
          "name": "from",
          "type": "address"
        },
        {
          "indexed": false,
          "internalType": "string",
          "name": "message",
          "type": "string"
        },
        {
          "indexed": false,
          "internalType": "string",
          "name": "name",
          "type": "string"
        },
        {
          "indexed": false,
          "internalType": "uint256",
          "name": "amount",
          "type": "uint256"
        }
      ],
      "name": "NewTip",
      "type": "event"
    },
    {
      "inputs": [],
      "name": "getAllTips",
      "outputs": [
        {
          "components": [
            {
              "internalType": "address",
              "name": "sender",
              "type": "address"
            },
            {
              "internalType": "string",
              "name": "message",
              "type": "string"
            },
            {
              "internalType": "string",
              "name": "name",
              "type": "string"
            },
            {
              "internalType": "uint256",
              "name": "timestamp",
              "type": "uint256"
            },
            {
              "internalType": "uint256",
              "name": "amount",
              "type": "uint256"
            }
          ],
          "internalType": "struct TipJar.Tip[]",
          "name": "",
          "type": "tuple[]"
        }
      ],
      "stateMutability": "view",
      "type": "function"
    },
    {
      "inputs": [],
      "name": "getTotalTips",
      "outputs": [
        {
          "internalType": "uint256",
          "name": "",
          "type": "uint256"
        }
      ],
      "stateMutability": "view",
      "type": "function"
    },
    {
      "inputs": [
        {
          "internalType": "string",
          "name": "_message",
          "type": "string"
        },
        {
          "internalType": "string",
          "name": "_name",
          "type": "string"
        }
      ],
      "name": "sendTip",
      "outputs": [],
      "stateMutability": "payable",
      "type": "function"
    }
  ],
  "bytecode": "0x608060405234801561001057600080fd5b5033600160006101000a81548173ffffffffffffffffffffffffffffffffffffffff021916908373ffffffffffffffffffffffffffffffffffffffff160217905550610ce1806100616000396000f3fe6080604052600436106100345760003560e01c8063399ddbbd1461003957806354cafb041461006457806355f203b514610080575b600080fd5b34801561004557600080fd5b5061004e6100ab565b60405161005b91906108d2565b60405180910390f35b61007e60048036038101906100799190610643565b610298565b005b34801561008c57600080fd5b5061009561052f565b6040516100a29190610979565b60405180910390f35b60606002805480602002602001604051908101604052809291908181526020016000905b8282101561028f57838290600052602060002090600502016040518060a00160405290816000820160009054906101000a900473ffffffffffffffffffffffffffffffffffffffff1673ffffffffffffffffffffffffffffffffffffffff1673ffffffffffffffffffffffffffffffffffffffff16815260200160018201805461015890610b2f565b80601f016020809104026020016040519081016040528092919081815260200182805461018490610b2f565b80156101d15780601f106101a6576101008083540402835291602001916101d1565b820191906000526020600020905b8154815290600101906020018083116101b457829003601f168201915b505050505081526020016002820180546101ea90610b2f565b80601f016020809104026020016040519081016040528092919081815260200182805461021690610b2f565b80156102635780601f1061023857610100808354040283529160200191610263565b820191906000526020600020905b81548152906001019060200180831161024657829003601f168201915b5050505050815260200160038201548152602001600482015481525050815260200190600101906100cf565b50505050905090565b343373ffffffffffffffffffffffffffffffffffffffff163110156102f2576040517f08c379a00000000000000000000000000000000000000000000000000000000081526004016102e990610959565b60405180910390fd5b6000600160009054906101000a900473ffffffffffffffffffffffffffffffffffffffff1673ffffffffffffffffffffffffffffffffffffffff163460405161033a906108bd565b60006040518083038185875af1925050503d8060008114610377576040519150601f19603f3d011682016040523d82523d6000602084013e61037c565b606091505b50509050806103c0576040517f08c379a00000000000000000000000000000000000000000000000000000000081526004016103b790610939565b60405180910390fd5b60016000808282546103d29190610a5b565b9250508190555060026040518060a001604052803373ffffffffffffffffffffffffffffffffffffffff16815260200185815260200184815260200142815260200134815250908060018154018082558091505060019003906000526020600020906005020160009091909190915060008201518160000160006101000a81548173ffffffffffffffffffffffffffffffffffffffff021916908373ffffffffffffffffffffffffffffffffffffffff16021790555060208201518160010190805190602001906104a4929190610538565b5060408201518160020190805190602001906104c1929190610538565b50606082015181600301556080820151816004015550503373ffffffffffffffffffffffffffffffffffffffff167fb1c1391b0c6c1e7244a4134896b4bc3f12d2c0cdfef990fac76eec58980a8baa848434604051610522939291906108f4565b60405180910390a2505050565b60008054905090565b82805461054490610b2f565b90600052602060002090601f01602090048101928261056657600085556105ad565b82601f1061057f57805160ff19168380011785556105ad565b828001600101855582156105ad579182015b828111156105ac578251825591602001919060010190610591565b5b5090506105ba91906105be565b5090565b5b808211156105d75760008160009055506001016105bf565b5090565b60006105ee6105e9846109b9565b610994565b90508281526020810184848401111561060657600080fd5b610611848285610aed565b509392505050565b600082601f83011261062a57600080fd5b813561063a8482602086016105db565b91505092915050565b6000806040838503121561065657600080fd5b600083013567ffffffffffffffff81111561067057600080fd5b61067c85828601610619565b925050602083013567ffffffffffffffff81111561069957600080fd5b6106a585828601610619565b9150509250929050565b60006106bb8383610822565b905092915050565b6106cc81610ab1565b82525050565b60006106dd826109fa565b6106e78185610a1d565b9350836020820285016106f9856109ea565b8060005b85811015610735578484038952815161071685826106af565b945061072183610a10565b925060208a019950506001810190506106fd565b50829750879550505050505092915050565b600061075282610a05565b61075c8185610a39565b935061076c818560208601610afc565b61077581610c1f565b840191505092915050565b600061078b82610a05565b6107958185610a4a565b93506107a5818560208601610afc565b6107ae81610c1f565b840191505092915050565b60006107c6601883610a4a565b91506107d182610c30565b602082019050919050565b60006107e9602183610a4a565b91506107f482610c59565b604082019050919050565b600061080c600083610a2e565b915061081782610ca8565b600082019050919050565b600060a08301600083015161083a60008601826106c3565b50602083015184820360208601526108528282610747565b9150506040830151848203604086015261086c8282610747565b9150506060830151610881606086018261089f565b506080830151610894608086018261089f565b508091505092915050565b6108a881610ae3565b82525050565b6108b781610ae3565b82525050565b60006108c8826107ff565b9150819050919050565b600060208201905081810360008301526108ec81846106d2565b905092915050565b6000606082019050818103600083015261090e8186610780565b905081810360208301526109228185610780565b905061093160408301846108ae565b949350505050565b60006020820190508181036000830152610952816107b9565b9050919050565b60006020820190508181036000830152610972816107dc565b9050919050565b600060208201905061098e60008301846108ae565b92915050565b600061099e6109af565b90506109aa8282610b61565b919050565b6000604051905090565b600067ffffffffffffffff8211156109d4576109d3610bf0565b5b6109dd82610c1f565b9050602081019050919050565b6000819050602082019050919050565b600081519050919050565b600081519050919050565b6000602082019050919050565b600082825260208201905092915050565b600081905092915050565b600082825260208201905092915050565b600082825260208201905092915050565b6000610a6682610ae3565b9150610a7183610ae3565b9250827fffffffffffffffffffffffffffffffffffffffffffffffffffffffffffffffff03821115610aa657610aa5610b92565b5b828201905092915050565b6000610abc82610ac3565b9050919050565b600073ffffffffffffffffffffffffffffffffffffffff82169050919050565b6000819050919050565b82818337600083830152505050565b60005b83811015610b1a578082015181840152602081019050610aff565b83811115610b29576000848401525b50505050565b60006002820490506001821680610b4757607f821691505b60208210811415610b5b57610b5a610bc1565b5b50919050565b610b6a82610c1f565b810181811067ffffffffffffffff82111715610b8957610b88610bf0565b5b80604052505050565b7f4e487b7100000000000000000000000000000000000000000000000000000000600052601160045260246000fd5b7f4e487b7100000000000000000000000000000000000000000000000000000000600052602260045260246000fd5b7f4e487b7100000000000000000000000000000000000000000000000000000000600052604160045260246000fd5b6000601f19601f8301169050919050565b7f4661696c656420746f2073656e6420746865206d6f6e65790000000000000000600082015250565b7f596f7520646f6e2774206861766520656e6f7567682065746820746f2073656e60008201527f6400000000000000000000000000000000000000000000000000000000000000602082015250565b5056fea264697066735822122017c40389248c4496e656972c61cde28ec8a6229cdde2bb1b1e3a4c8d6cb39c7b64736f6c63430008040033",
  "linkReferences": {},
  "deployedLinkReferences": {}
}