{
  "_format": "hh-sol-artifact-1",
  "contractName": "TipJar",
  "sourceName": "src/contracts/TipJar.sol",
  "abi": [
    {
      "inputs": [],
      "stateMutability": "nonpayable",
      "type": "constructor"
    },
    {
      "anonymous": false,
      "inputs": [
        {
          "indexed": true,
          "internalType": "address",
          "name": "from",
          "type": "address"
        },
        {
          "indexed": false,
          "internalType": "string",
          "name": "message",
          "type": "string"
        },
        {
          "indexed": false,
          "internalType": "string",
          "name": "name",
          "type": "string"
        },
        {
          "indexed": false,
          "internalType": "uint256",
          "name": "amount",
          "type": "uint256"
        }
      ],
      "name": "NewTip",
      "type": "event"
    },
    {
      "inputs": [
        {
          "internalType": "address",
          "name": "",
          "type": "address"
        }
      ],
      "name": "balances",
      "outputs": [
        {
          "internalType": "uint256",
          "name": "",
          "type": "uint256"
        }
      ],
      "stateMutability": "view",
      "type": "function"
    },
    {
      "inputs": [],
      "name": "getAllTips",
      "outputs": [
        {
          "components": [
            {
              "internalType": "address",
              "name": "sender",
              "type": "address"
            },
            {
              "internalType": "string",
              "name": "message",
              "type": "string"
            },
            {
              "internalType": "string",
              "name": "name",
              "type": "string"
            },
            {
              "internalType": "uint256",
              "name": "timestamp",
              "type": "uint256"
            },
            {
              "internalType": "uint256",
              "name": "amount",
              "type": "uint256"
            }
          ],
          "internalType": "struct TipJar.Tip[]",
          "name": "",
          "type": "tuple[]"
        }
      ],
      "stateMutability": "view",
      "type": "function"
    },
    {
      "inputs": [],
      "name": "getTotalTips",
      "outputs": [
        {
          "internalType": "uint256",
          "name": "",
          "type": "uint256"
        }
      ],
      "stateMutability": "view",
      "type": "function"
    },
    {
      "inputs": [
        {
          "internalType": "string",
          "name": "_message",
          "type": "string"
        },
        {
          "internalType": "string",
          "name": "_name",
          "type": "string"
        }
      ],
      "name": "sendTip",
      "outputs": [],
      "stateMutability": "payable",
      "type": "function"
    },
    {
      "inputs": [],
      "name": "totalTips",
      "outputs": [
        {
          "internalType": "uint256",
          "name": "",
          "type": "uint256"
        }
      ],
      "stateMutability": "view",
      "type": "function"
    },
    {
      "inputs": [],
      "name": "withdraw",
      "outputs": [],
      "stateMutability": "nonpayable",
      "type": "function"
    }
  ],
  "bytecode": "0x608060405234801561001057600080fd5b5033600160006101000a81548173ffffffffffffffffffffffffffffffffffffffff021916908373ffffffffffffffffffffffffffffffffffffffff160217905550611070806100616000396000f3fe6080604052600436106100555760003560e01c806327e235e31461005a578063399ddbbd146100975780633ccfd60b146100c257806354cafb04146100d957806355f203b5146100f5578063990de8ae14610120575b600080fd5b34801561006657600080fd5b50610081600480360381019061007c9190610886565b61014b565b60405161008e9190610c6b565b60405180910390f35b3480156100a357600080fd5b506100ac610163565b6040516100b99190610b84565b60405180910390f35b3480156100ce57600080fd5b506100d7610350565b005b6100f360048036038101906100ee91906108af565b610539565b005b34801561010157600080fd5b5061010a610757565b6040516101179190610c6b565b60405180910390f35b34801561012c57600080fd5b50610135610760565b6040516101429190610c6b565b60405180910390f35b60036020528060005260406000206000915090505481565b60606002805480602002602001604051908101604052809291908181526020016000905b8282101561034757838290600052602060002090600502016040518060a00160405290816000820160009054906101000a900473ffffffffffffffffffffffffffffffffffffffff1673ffffffffffffffffffffffffffffffffffffffff1673ffffffffffffffffffffffffffffffffffffffff16815260200160018201805461021090610e7b565b80601f016020809104026020016040519081016040528092919081815260200182805461023c90610e7b565b80156102895780601f1061025e57610100808354040283529160200191610289565b820191906000526020600020905b81548152906001019060200180831161026c57829003601f168201915b505050505081526020016002820180546102a290610e7b565b80601f01602080910402602001604051908101604052809291908181526020018280546102ce90610e7b565b801561031b5780601f106102f05761010080835404028352916020019161031b565b820191906000526020600020905b8154815290600101906020018083116102fe57829003601f168201915b505050505081526020016003820154815260200160048201548152505081526020019060010190610187565b50505050905090565b3373ffffffffffffffffffffffffffffffffffffffff16600160009054906101000a900473ffffffffffffffffffffffffffffffffffffffff1673ffffffffffffffffffffffffffffffffffffffff16146103e0576040517f08c379a00000000000000000000000000000000000000000000000000000000081526004016103d790610c4b565b60405180910390fd5b60004711610423576040517f08c379a000000000000000000000000000000000000000000000000000000000815260040161041a90610beb565b60405180910390fd5b6000600160009054906101000a900473ffffffffffffffffffffffffffffffffffffffff1673ffffffffffffffffffffffffffffffffffffffff164760405161046b90610b6f565b60006040518083038185875af1925050503d80600081146104a8576040519150601f19603f3d011682016040523d82523d6000602084013e6104ad565b606091505b50509050806104f1576040517f08c379a00000000000000000000000000000000000000000000000000000000081526004016104e890610c0b565b60405180910390fd5b6000600360003373ffffffffffffffffffffffffffffffffffffffff1673ffffffffffffffffffffffffffffffffffffffff1681526020019081526020016000208190555050565b343373ffffffffffffffffffffffffffffffffffffffff16311015610593576040517f08c379a000000000000000000000000000000000000000000000000000000000815260040161058a90610c2b565b60405180910390fd5b34600360003373ffffffffffffffffffffffffffffffffffffffff1673ffffffffffffffffffffffffffffffffffffffff16815260200190815260200160002060008282546105e29190610da3565b9250508190555060016000808282546105fb9190610d4d565b9250508190555060026040518060a001604052803373ffffffffffffffffffffffffffffffffffffffff16815260200184815260200183815260200142815260200134815250908060018154018082558091505060019003906000526020600020906005020160009091909190915060008201518160000160006101000a81548173ffffffffffffffffffffffffffffffffffffffff021916908373ffffffffffffffffffffffffffffffffffffffff16021790555060208201518160010190805190602001906106cd929190610766565b5060408201518160020190805190602001906106ea929190610766565b50606082015181600301556080820151816004015550503373ffffffffffffffffffffffffffffffffffffffff167fb1c1391b0c6c1e7244a4134896b4bc3f12d2c0cdfef990fac76eec58980a8baa83833460405161074b93929190610ba6565b60405180910390a25050565b60008054905090565b60005481565b82805461077290610e7b565b90600052602060002090601f01602090048101928261079457600085556107db565b82601f106107ad57805160ff19168380011785556107db565b828001600101855582156107db579182015b828111156107da5782518255916020019190600101906107bf565b5b5090506107e891906107ec565b5090565b5b808211156108055760008160009055506001016107ed565b5090565b600061081c61081784610cab565b610c86565b90508281526020810184848401111561083457600080fd5b61083f848285610e39565b509392505050565b60008135905061085681611023565b92915050565b600082601f83011261086d57600080fd5b813561087d848260208601610809565b91505092915050565b60006020828403121561089857600080fd5b60006108a684828501610847565b91505092915050565b600080604083850312156108c257600080fd5b600083013567ffffffffffffffff8111156108dc57600080fd5b6108e88582860161085c565b925050602083013567ffffffffffffffff81111561090557600080fd5b6109118582860161085c565b9150509250929050565b60006109278383610ad4565b905092915050565b61093881610dfd565b82525050565b600061094982610cec565b6109538185610d0f565b93508360208202850161096585610cdc565b8060005b858110156109a15784840389528151610982858261091b565b945061098d83610d02565b925060208a01995050600181019050610969565b50829750879550505050505092915050565b60006109be82610cf7565b6109c88185610d2b565b93506109d8818560208601610e48565b6109e181610f6b565b840191505092915050565b60006109f782610cf7565b610a018185610d3c565b9350610a11818560208601610e48565b610a1a81610f6b565b840191505092915050565b6000610a32601d83610d3c565b9150610a3d82610f7c565b602082019050919050565b6000610a55600f83610d3c565b9150610a6082610fa5565b602082019050919050565b6000610a78601c83610d3c565b9150610a8382610fce565b602082019050919050565b6000610a9b602083610d3c565b9150610aa682610ff7565b602082019050919050565b6000610abe600083610d20565b9150610ac982611020565b600082019050919050565b600060a083016000830151610aec600086018261092f565b5060208301518482036020860152610b0482826109b3565b91505060408301518482036040860152610b1e82826109b3565b9150506060830151610b336060860182610b51565b506080830151610b466080860182610b51565b508091505092915050565b610b5a81610e2f565b82525050565b610b6981610e2f565b82525050565b6000610b7a82610ab1565b9150819050919050565b60006020820190508181036000830152610b9e818461093e565b905092915050565b60006060820190508181036000830152610bc081866109ec565b90508181036020830152610bd481856109ec565b9050610be36040830184610b60565b949350505050565b60006020820190508181036000830152610c0481610a25565b9050919050565b60006020820190508181036000830152610c2481610a48565b9050919050565b60006020820190508181036000830152610c4481610a6b565b9050919050565b60006020820190508181036000830152610c6481610a8e565b9050919050565b6000602082019050610c806000830184610b60565b92915050565b6000610c90610ca1565b9050610c9c8282610ead565b919050565b6000604051905090565b600067ffffffffffffffff821115610cc657610cc5610f3c565b5b610ccf82610f6b565b9050602081019050919050565b6000819050602082019050919050565b600081519050919050565b600081519050919050565b6000602082019050919050565b600082825260208201905092915050565b600081905092915050565b600082825260208201905092915050565b600082825260208201905092915050565b6000610d5882610e2f565b9150610d6383610e2f565b9250827fffffffffffffffffffffffffffffffffffffffffffffffffffffffffffffffff03821115610d9857610d97610ede565b5b828201905092915050565b6000610dae82610e2f565b9150610db983610e2f565b9250817fffffffffffffffffffffffffffffffffffffffffffffffffffffffffffffffff0483118215151615610df257610df1610ede565b5b828202905092915050565b6000610e0882610e0f565b9050919050565b600073ffffffffffffffffffffffffffffffffffffffff82169050919050565b6000819050919050565b82818337600083830152505050565b60005b83811015610e66578082015181840152602081019050610e4b565b83811115610e75576000848401525b50505050565b60006002820490506001821680610e9357607f821691505b60208210811415610ea757610ea6610f0d565b5b50919050565b610eb682610f6b565b810181811067ffffffffffffffff82111715610ed557610ed4610f3c565b5b80604052505050565b7f4e487b7100000000000000000000000000000000000000000000000000000000600052601160045260246000fd5b7f4e487b7100000000000000000000000000000000000000000000000000000000600052602260045260246000fd5b7f4e487b7100000000000000000000000000000000000000000000000000000000600052604160045260246000fd5b6000601f19601f8301169050919050565b7f596f752068617665206e6f20657468657220746f207769746864726177000000600082015250565b7f5769746864726177206661696c65640000000000000000000000000000000000600082015250565b7f596f756420646f6e2774206861766520656e6f7567682066756e647300000000600082015250565b7f4f776e61626c653a2063616c6c6572206973206e6f7420746865206f776e6572600082015250565b50565b61102c81610dfd565b811461103757600080fd5b5056fea26469706673582212203912dff82578dbe36d57192cee1f313a3006d2237cb439970793e56e9fbf7c6c64736f6c63430008040033",
  "linkReferences": {},
  "deployedLinkReferences": {}
}