{
  "_format": "hh-sol-artifact-1",
  "contractName": "TipJar",
  "sourceName": "src/contracts/TipJar.sol",
  "abi": [
    {
      "inputs": [],
      "stateMutability": "nonpayable",
      "type": "constructor"
    },
    {
      "anonymous": false,
      "inputs": [
        {
          "indexed": true,
          "internalType": "address",
          "name": "from",
          "type": "address"
        },
        {
          "indexed": false,
          "internalType": "string",
          "name": "message",
          "type": "string"
        },
        {
          "indexed": false,
          "internalType": "string",
          "name": "name",
          "type": "string"
        },
        {
          "indexed": false,
          "internalType": "uint256",
          "name": "amount",
          "type": "uint256"
        }
      ],
      "name": "NewTip",
      "type": "event"
    },
    {
      "inputs": [],
      "name": "getAllTips",
      "outputs": [
        {
          "components": [
            {
              "internalType": "address",
              "name": "sender",
              "type": "address"
            },
            {
              "internalType": "string",
              "name": "message",
              "type": "string"
            },
            {
              "internalType": "string",
              "name": "name",
              "type": "string"
            },
            {
              "internalType": "uint256",
              "name": "timestamp",
              "type": "uint256"
            },
            {
              "internalType": "uint256",
              "name": "amount",
              "type": "uint256"
            }
          ],
          "internalType": "struct TipJar.Tip[]",
          "name": "",
          "type": "tuple[]"
        }
      ],
      "stateMutability": "view",
      "type": "function"
    },
    {
      "inputs": [],
      "name": "getTotalTips",
      "outputs": [
        {
          "internalType": "uint256",
          "name": "",
          "type": "uint256"
        }
      ],
      "stateMutability": "view",
      "type": "function"
    },
    {
      "inputs": [
        {
          "internalType": "string",
          "name": "_message",
          "type": "string"
        },
        {
          "internalType": "string",
          "name": "_name",
          "type": "string"
        }
      ],
      "name": "sendTip",
      "outputs": [],
      "stateMutability": "payable",
      "type": "function"
    }
  ],
  "bytecode": "0x608060405234801561001057600080fd5b5033600160006101000a81548173ffffffffffffffffffffffffffffffffffffffff021916908373ffffffffffffffffffffffffffffffffffffffff160217905550610bf5806100616000396000f3fe6080604052600436106100345760003560e01c8063399ddbbd1461003957806354cafb041461006457806355f203b514610080575b600080fd5b34801561004557600080fd5b5061004e6100ab565b60405161005b9190610855565b60405180910390f35b61007e600480360381019061007991906105e9565b610298565b005b34801561008c57600080fd5b506100956104d5565b6040516100a291906108dc565b60405180910390f35b60606002805480602002602001604051908101604052809291908181526020016000905b8282101561028f57838290600052602060002090600502016040518060a00160405290816000820160009054906101000a900473ffffffffffffffffffffffffffffffffffffffff1673ffffffffffffffffffffffffffffffffffffffff1673ffffffffffffffffffffffffffffffffffffffff16815260200160018201805461015890610a92565b80601f016020809104026020016040519081016040528092919081815260200182805461018490610a92565b80156101d15780601f106101a6576101008083540402835291602001916101d1565b820191906000526020600020905b8154815290600101906020018083116101b457829003601f168201915b505050505081526020016002820180546101ea90610a92565b80601f016020809104026020016040519081016040528092919081815260200182805461021690610a92565b80156102635780601f1061023857610100808354040283529160200191610263565b820191906000526020600020905b81548152906001019060200180831161024657829003601f168201915b5050505050815260200160038201548152602001600482015481525050815260200190600101906100cf565b50505050905090565b6000600160009054906101000a900473ffffffffffffffffffffffffffffffffffffffff1673ffffffffffffffffffffffffffffffffffffffff16346040516102e090610840565b60006040518083038185875af1925050503d806000811461031d576040519150601f19603f3d011682016040523d82523d6000602084013e610322565b606091505b5050905080610366576040517f08c379a000000000000000000000000000000000000000000000000000000000815260040161035d906108bc565b60405180910390fd5b600160008082825461037891906109be565b9250508190555060026040518060a001604052803373ffffffffffffffffffffffffffffffffffffffff16815260200185815260200184815260200142815260200134815250908060018154018082558091505060019003906000526020600020906005020160009091909190915060008201518160000160006101000a81548173ffffffffffffffffffffffffffffffffffffffff021916908373ffffffffffffffffffffffffffffffffffffffff160217905550602082015181600101908051906020019061044a9291906104de565b5060408201518160020190805190602001906104679291906104de565b50606082015181600301556080820151816004015550503373ffffffffffffffffffffffffffffffffffffffff167fb1c1391b0c6c1e7244a4134896b4bc3f12d2c0cdfef990fac76eec58980a8baa8484346040516104c893929190610877565b60405180910390a2505050565b60008054905090565b8280546104ea90610a92565b90600052602060002090601f01602090048101928261050c5760008555610553565b82601f1061052557805160ff1916838001178555610553565b82800160010185558215610553579182015b82811115610552578251825591602001919060010190610537565b5b5090506105609190610564565b5090565b5b8082111561057d576000816000905550600101610565565b5090565b600061059461058f8461091c565b6108f7565b9050828152602081018484840111156105ac57600080fd5b6105b7848285610a50565b509392505050565b600082601f8301126105d057600080fd5b81356105e0848260208601610581565b91505092915050565b600080604083850312156105fc57600080fd5b600083013567ffffffffffffffff81111561061657600080fd5b610622858286016105bf565b925050602083013567ffffffffffffffff81111561063f57600080fd5b61064b858286016105bf565b9150509250929050565b600061066183836107a5565b905092915050565b61067281610a14565b82525050565b60006106838261095d565b61068d8185610980565b93508360208202850161069f8561094d565b8060005b858110156106db57848403895281516106bc8582610655565b94506106c783610973565b925060208a019950506001810190506106a3565b50829750879550505050505092915050565b60006106f882610968565b610702818561099c565b9350610712818560208601610a5f565b61071b81610b82565b840191505092915050565b600061073182610968565b61073b81856109ad565b935061074b818560208601610a5f565b61075481610b82565b840191505092915050565b600061076c6018836109ad565b915061077782610b93565b602082019050919050565b600061078f600083610991565b915061079a82610bbc565b600082019050919050565b600060a0830160008301516107bd6000860182610669565b50602083015184820360208601526107d582826106ed565b915050604083015184820360408601526107ef82826106ed565b91505060608301516108046060860182610822565b5060808301516108176080860182610822565b508091505092915050565b61082b81610a46565b82525050565b61083a81610a46565b82525050565b600061084b82610782565b9150819050919050565b6000602082019050818103600083015261086f8184610678565b905092915050565b600060608201905081810360008301526108918186610726565b905081810360208301526108a58185610726565b90506108b46040830184610831565b949350505050565b600060208201905081810360008301526108d58161075f565b9050919050565b60006020820190506108f16000830184610831565b92915050565b6000610901610912565b905061090d8282610ac4565b919050565b6000604051905090565b600067ffffffffffffffff82111561093757610936610b53565b5b61094082610b82565b9050602081019050919050565b6000819050602082019050919050565b600081519050919050565b600081519050919050565b6000602082019050919050565b600082825260208201905092915050565b600081905092915050565b600082825260208201905092915050565b600082825260208201905092915050565b60006109c982610a46565b91506109d483610a46565b9250827fffffffffffffffffffffffffffffffffffffffffffffffffffffffffffffffff03821115610a0957610a08610af5565b5b828201905092915050565b6000610a1f82610a26565b9050919050565b600073ffffffffffffffffffffffffffffffffffffffff82169050919050565b6000819050919050565b82818337600083830152505050565b60005b83811015610a7d578082015181840152602081019050610a62565b83811115610a8c576000848401525b50505050565b60006002820490506001821680610aaa57607f821691505b60208210811415610abe57610abd610b24565b5b50919050565b610acd82610b82565b810181811067ffffffffffffffff82111715610aec57610aeb610b53565b5b80604052505050565b7f4e487b7100000000000000000000000000000000000000000000000000000000600052601160045260246000fd5b7f4e487b7100000000000000000000000000000000000000000000000000000000600052602260045260246000fd5b7f4e487b7100000000000000000000000000000000000000000000000000000000600052604160045260246000fd5b6000601f19601f8301169050919050565b7f4661696c656420746f2073656e6420746865206d6f6e65790000000000000000600082015250565b5056fea2646970667358221220f72f98163a81ee4ed2c46a2db045d382f22b0a8f19af7031f3708befc14447fc64736f6c63430008040033",
  "linkReferences": {},
  "deployedLinkReferences": {}
}